:040000005BEF00F0C2
:100008004A82FACF40F0FBCF41F0D9CF42F0DACFA5
:1000180043F0F3CF44F0F4CF45F0F6CF46F0F7CFF6
:1000280047F0F8CF48F0F5CF49F0A0A61EEF00F052
:1000380020EF00F035EF00F0A1A625EF00F027EF44
:1000480000F035EF00F002D833EF00F00500FA6E4B
:100058002B50FD6E2C50FE6EFF6AFA50120045EFD1
:1000680000F09DA63AEF00F03CEF00F045EF00F0FD
:100078009EA641EF00F043EF00F045EF00F027EFB8
:1000880000F049C0F5FF48C0F8FF47C0F7FF46C079
:10009800F6FF45C0F4FF44C0F3FF43C0DAFF42C097
:1000A800D9FF41C0FBFF40C0FAFF4A921100B8EFE8
:0200B8000CF04A
:10100000003C1BDC1AEA1AF8105C12321B9E148694
:101010001B7E1B761B6E1B661B5E1B561B281BD67E
:101020001653797374656D20537461727465640D21
:101030000044617465203A20000044EC0DF0F28E0B
:10104000F28CF28C210E0001796F100E7A6F000E77
:101050007C6F0F0E7B6F9DEC0BF0080E0001846F10
:10106000050E856FA20E4FEC0DF0850EE82EFED713
:1010700000F0080E0001846F060E856FA60E4FEC7F
:101080000DF0850EE82EFED700F0080E0001846FEB
:10109000A20E14EC0DF02F6E080E0001846FA60E48
:1010A00014EC0DF02E6E03EC0BF020EE60F0050E4C
:1010B000EBCFDBFFE806FCE2DBEC08F09E0EFCEC7D
:1010C0000CF02D6E000E0001816F2DC082F0700EAD
:1010D0008CEC0AF00B0E00018B6F260E8A6F5D0EF2
:1010E000E82EFED78A2FFCD78B2FFAD700F000F01E
:1010F00053EF08F05BEF00F064EC0DF00009D8B49A
:1011000084EF08F086EF08F0C0EF08F094EF08F0E5
:10111000C3EC0DF0DAEF08F0BFEC0DF0DAEF08F0F9
:10112000B7EC0DF0DAEF08F013C03AF014C03BF062
:1011300002D8A4EF08F00500FA6E0750FD6E0850C3
:10114000FE6EFF6AFA5012003C6E3D6A3D50000A86
:10115000D8B4ADEF08F090EF08F03C50010AD8B4D5
:1011600090EF08F0030AD8B488EF08F0010AD8B469
:101170008CEF08F0070AD8B490EF08F090EF08F071
:1011800024901EC0D9FF1FC0DAFF1E4A1F2ADF505D
:10119000C7EC0DF02006D8A0210620502110D8A4BD
:1011A000D4EF08F0D6EF08F0D9EF08F0060EDAEF2A
:1011B00008F0030E120029380F0B300F0001666F84
:1011C00029500F0B300F676F2D0E686F2A380F0BE9
:1011D000300F696F2A500F0B300F6A6F2D0E6B6F37
:1011E00028380F0B300F6C6F28500F0B300F6D6FBE
:1011F0002F0E6E6F25380F0B300F6F6F25500F0BB2
:10120000300F706F2D0E716F26380F0B300F726F0D
:1012100026500F0B300F736F2D0E746F27380F0B86
:10122000300F756F27500F0B300F766F0D0E776FE5
:10123000310E796F100E7A6F000E7C6F070E7B6F88
:101240009DEC0BF0660E0001796F000E7A6F000EB8
:101250007C6F120E7B6F9DEC0BF01200E2EC0DF038
:101260001EC0D9FF1FC0DAFFDF6E1E4A1F2A2006EC
:10127000D8A0210620502110D8B441EF09F043EF47
:1012800009F048EF09F0CEEC0DF0050E7FEF09F004
:10129000248653EF09F0ABEC0DF07FEF09F0AFECD3
:1012A0000DF07FEF09F00DC03AF00EC03BF002D810
:1012B00063EF09F00500FA6E0150FD6E0250FE6EFC
:1012C000FF6AFA5012003C6E3D6A3D50000AD8B4E5
:1012D0006CEF09F04FEF09F03C50010AD8B44FEF22
:1012E00009F0030AD8B44BEF09F0010AD8B44BEF68
:1012F00009F0070AD8B44FEF09F04FEF09F01200D8
:1013000000017A6F010E00017B6F24B48AEF09F0AF
:101310008CEF09F0CFEF09F07AC01DF024922484FD
:1013200024900E0E226E010E1C6EF40E1B6E24868F
:10133000D00E016E1B0E026E000E0D6E000E0E6EB4
:10134000D00E036E1B0E046E000E0F6E000E106E9C
:10135000D00E056E1B0E066E000E116E000E126E84
:10136000D00E076E1B0E086E000E136E000E146E6C
:10137000CC0E096E1B0E0A6E000E156E000E166E58
:10138000960E786F1B0E796F8FEC0DF0DCEC0DF084
:10139000DAEC0CF0D4EC0DF0000E00017B6F7B5109
:1013A00012000001826F000E0001836F0001825164
:1013B00080EC09F00009D8B4E0EF09F0E2EF09F0A1
:1013C000D6EF09F0180E00017D6F190E7E6F830EA7
:1013D0007F6F000E806F20EC0DF0810E0001786FA2
:1013E000000E796F000E7B6F010E7A6FC9EC0CF066
:1013F000000E00017D6F000E7E6F000E7F6F000EED
:10140000806F2CEC0DF0A7EC0DF049EC0CF0E80629
:10141000D8B40DEF0AF00FEF0AF005EF0AF0000163
:101420008351120000017C6F000178517911D8B40A
:101430001CEF0AF01EEF0AF038EF0AF07C51020DA3
:10144000010EF324D96E000EF420DA6E78C0DEFFB0
:1014500079C0DDFF7C51020D0D0EF324D96E000E14
:10146000F420DA6E7AC0DEFF7BC0DDFF4EEF0AF0BB
:101470007C51020D010EF324D96E000EF420DA6EB9
:10148000D00EDE6E1B0EDD6E7C51020D0D0EF324B0
:10149000D96E000EF420DA6EDE6ADD6A1200248650
:1014A0005FEF0AF0BBEC0DF08BEF0AF0E0EC0DF013
:1014B000030E8BEF0AF0B7EC0DF08BEF0AF00DC0C6
:1014C0003AF00EC03BF002D86FEF0AF00500FA6E5A
:1014D0000150FD6E0250FE6EFF6AFA5012003C6E23
:1014E0003D6A3D50000AD8B478EF0AF05BEF0AF08D
:1014F0003C50010AD8B45BEF0AF0030AD8B452EFAB
:101500000AF0010AD8B452EF0AF0070AD8B456EF2D
:101510000AF05BEF0AF012000001836F00018351B3
:1015200080EC09F00009D8B498EF0AF09AEF0AF0BD
:101530008EEF0AF0C00E00017D6F180E7E6F820ED6
:101540007F6F000E806F20EC0DF0810E0001786F30
:10155000000E796F000E7B6F010E7A6FC9EC0CF0F4
:10156000000E00017D6F000E7E6F000E7F6F000E7B
:10157000806F2CEC0DF0A7EC0DF049EC0CF0E806B8
:10158000D8B4C5EF0AF0C7EF0AF0BDEF0AF01200B9
:10159000356E31503210D8B4D0EF0AF0D2EF0AF0E5
:1015A000ECEF0AF03550020D010EF324D96E000E57
:1015B000F420DA6E31C0DEFF32C0DDFF3550020D9F
:1015C0000D0EF324D96E000EF420DA6E33C0DEFF68
:1015D00034C0DDFF02EF0BF03550020D010EF32495
:1015E000D96E000EF420DA6ED00EDE6E1B0EDD6EAC
:1015F0003550020D0D0EF324D96E000EF420DA6E74
:10160000DE6ADD6A1200000E0001816FD00ED1EC9F
:1016100009F0276E010E0001816FD00ED1EC09F0A8
:10162000266E020E0001816FD00ED1EC09F0256EFE
:10163000030E0001816FD00ED1EC09F0296E040E6B
:101640000001816FD00ED1EC09F02A6E050E000169
:10165000816FD00ED1EC09F0286E20EE25F000EE5F
:1016600084F0050EDBCFEBFFE806FCE21200DEECB7
:101670000DF024A03EEF0BF040EF0BF04CEF0BF021
:1016800064EC0DF00009D8B448EF0BF04AEF0BF012
:101690004CEF0BF00F0E226E2250020D010EF324C0
:1016A000F66E100EF420F76EF86A000EF8220900AC
:1016B000F5CF3EF00900F5CF3FF002D869EF0BF00F
:1016C0000500FA6E3E50FD6E3F50FE6EFF6AFA5006
:1016D0001200226E12002490020E236E78EF0BF09F
:1016E000BBEC0DF09CEF0BF0B7EC0DF09CEF0BF0AA
:1016F00011C03AF012C03BF002D888EF0BF00500A1
:10170000FA6E0550FD6E0650FE6EFF6AFA5012002A
:101710003C6E3D6A3D50000AD8B491EF0BF074EF77
:101720000BF03C50020AD8B470EF0BF0010AD8B4A9
:1017300070EF0BF074EF0BF01200000E00017E6FE3
:10174000000E7D6F000E7E6F000E7D6FC0EF0BF000
:1017500079C0F6FF7AC0F7FF000EF86E0F0EF7643F
:1017600003D00800F55005D0F6CFE9FFF7CFEAFF28
:10177000EF5008EC0DF00001794B7A2B7D4B7E2B5E
:101780007B517D5D7C517E59D8A0C9EF0BF0CBEF2A
:101790000BF0A8EF0BF01200080EB86E900EAB6EB7
:1017A000240EAC6EA00EAF6E010EB06E000E0001E6
:1017B000786F000E796F85EC0DF0000E0001786FE8
:1017C000000E796F80EC0DF0000E0001786F000EB6
:1017D000796F8AEC0DF0000E306E12000001786F08
:1017E000010E0001796F24B2F8EF0BF0FAEF0BF065
:1017F0000DEF0CF02482000E796F7851D8B403EF0E
:101800000CF005EF0CF009EF0CF0010E226E0BEF5F
:101810000CF0020E226ED6EC0DF000017951120090
:1018200020EE02F03A50D9263B50DA22DECF31F0DA
:10183000DDCF32F03AC0D9FF3BC0DAFFDECF33F064
:10184000DDCF34F0EBEC0CF0000E366E000E376E90
:10185000000E386E000E396E38EC0DF0020E1200DC
:10186000000E8D6E000E8C6E000E896E000E8A6E5C
:10187000000E8B6E070E966E92689368BF0E946E84
:10188000FE0E956E7E681F0E7F6E000E7C6EF18ED2
:101890001200010E0001786F24B251EF0CF053EFEB
:1018A0000CF05DEF0CF024941D68DCEC0DF0D8EC2E
:1018B0000DF0DAEC0DF023C078F000017851120041
:1018C0003AC031F03BC032F0000E346E010E336E80
:1018D000EBEC0CF0000E366E000E376E000E386E1C
:1018E000000E396E38EC0DF0040E12003AC031F0E3
:1018F0003BC032F0000E346E020E336EEBEC0CF097
:10190000000E366E000E376E000E386E000E396E09
:1019100038EC0DF0020E12003AC031F03BC032F04C
:10192000000E346E010E336EEBEC0CF0000E366ED2
:10193000000E376E000E386E000E396E38EC0DF06A
:10194000020E12003AC031F03BC032F0000E346E8D
:10195000020E336EEBEC0CF0000E366E000E376E9E
:10196000000E386E000E396E38EC0DF0040E1200C9
:1019700000EE60F0180EEE6AE806FDE100EE01F000
:10198000300EEE6AE806FDE14A904A9200011DEF32
:1019900008F024A6CEEF0CF0D0EF0CF0D9EF0CF04D
:1019A00078C01EF079C01FF07AC020F07BC021F013
:1019B00024961200C6BADFEF0CF0E1EF0CF0EAEF6C
:1019C0000CF0800EC76E080EC66E000EC56E270E98
:1019D000C86EC68A120024A6F0EF0CF0F2EF0CF0ED
:1019E000FBEF0CF031C01EF032C01FF033C020F00E
:1019F00034C021F0249612000001846F000E000113
:101A0000816F8451D1EC09F00001856F855112007E
:101A10000001786F9EA80FEF0DF011EF0DF00AEFA7
:101A20000DF078C0ADFF12000001856F84C081F019
:101A300000018551D1EC09F00001866F865112003A
:101A40007DC078F07EC079F07FC07AF080C07BF0F6
:101A5000000E12EC0AF012007DC078F07EC079F022
:101A60007FC07AF080C07BF0020E12EC0AF0120008
:101A700036C031F037C032F038C033F039C034F0FE
:101A8000000EC8EC0AF01200A3EC0DF05AEC0DF0B9
:101A900030EC0CF07BEC0DF0CCEC0BF01200000104
:101AA000866F84C081F085C082F0000186518CEC85
:101AB0000AF01200800EC76E080EC66E000EC56ECC
:101AC000270EC86EC69A1200C5BC69EF0DF06CEF08
:101AD0000DF0010E6DEF0DF0000E120024801D5070
:101AE0000109C7EC0DF0050E120024801D50C7EC53
:101AF0000DF0030E1200300ED36E000E9B6E12001E
:101B000078C08EF079C08FF0120078C090F079C064
:101B100091F0120078C08CF079C08DF0120078C07E
:101B20002BF079C02CF012002492000E236E0E0EC2
:101B300012002490E4EC0DF0040E12002492000E2A
:101B4000236E0E0E1200D08EA2869F861200000E0B
:101B5000EEEC0BF01200D1EC0DF0090E1200D1ECFE
:101B60000DF00A0E1200CEEC0DF0050E1200EAEC9C
:101B70000DF0000E1200ECEC0DF0010E1200ECEC7A
:101B80000DF0020E1200ECEC0DF0010E1200316EA1
:101B900031C0C9FF120037EC0BF01200C59AC5889E
:101BA0001200C58AC58812009D861200C5801200E9
:101BB0009D961200C69A12009E9612009E961200E2
:101BC0009E861200C9501200C5861200050E120032
:0C1BD000010E1200C5841200C582120034
:020000040020DA
:08000000FFFFFFFFFFFFFFFF00
:020000040030CA
:0E000000FF021F1EFF8B85FF0FC00FE00F4099
:00000001FF
